:10000000B2017728A700071187110911831607117C
:10001000871109110F30870583122708B2182D2880
:100020003A30A100FC305E203330A6004120103071
:10003000A10068305E20412064305D202230A6009F
:10004000412028302C200C302C2001302C20063070
:100050002C20B21427082D283214A600321C3B286D
:100060008711033C031C402840200730A100D030FA
:100070005E20031408003214FE3C03197228871511
:10008000321C321007150F3087052608F039870417
:100090000711A60E3218412832305D2003140800E3
:1000A000A301A200FF30A207031CA307031C7228B0
:1000B0000330A100DF305E205228A101E83EA000FD
:1000C000A109FC30031C6728A00703186428A007B7
:1000D0006400A10F642820186D28A01C712800005E
:1000E0007128080083130313831264000800C030D2
:1000F0009F008316013088008601643083128A01D4
:10010000502064008A110A1208189D2825308600A4
:10011000FE308A01022001308A01022042308A0129
:1001200002206C308A01022061308A010220633093
:100130008A0102206B308A01022064008A110A12AF
:10014000081CB9280A308600FE308A0102200130DE
:100150008A01022057308A01022068308A01022079
:1001600069308A01022074308A01022065308A01D8
:1001700002200130A300F4308A0151208A01812835
:02400E00F92F88
:00000001FF
