:100000002828A301A200FF30A207031CA307031C9A
:1000100023280330A100DF300F200328A101E83E90
:10002000A000A109FC30031C1828A00703181528FC
:10003000A0076400A10F152820181E28A01C222844
:1000400000002228080083130313831264000800B1
:10005000C0309F008316860183120130A300F43064
:100060008A010220203086000530A300DC308A019E
:10007000022086010530A300DC308A0102208A01BB
:02008000322824
:02400E00F92F88
:00000001FF
