:10000000B201C628A501A400B3172730A300103001
:1000100015200330A300E8301520A301643015201B
:10002000A3010A30152024082028A2002508A100D9
:100030002408A000A5202008031DB313B31B08004B
:10004000303EA70007118711091183160711871188
:1000500009110F30870583122708B2184C283A304F
:10006000A100FC3091203330A60060201030A100A8
:10007000683091206020643090202230A6006020FB
:1000800028304B200C304B2001304B2006304B20C9
:10009000B21427084C283214A600321C5A288711A3
:1000A000033C031C5F285F200730A100D030912063
:1000B000031408003214FE3C0319C1288715321CB2
:1000C000321007150F3087052608F039870407110D
:1000D000A60E3218602832309020031408000F3921
:1000E000A0000310A00DA00D1F08C0392004013886
:1000F0009F000030A100323091209F149F187E286D
:10010000A1011E08C128A301A200FF30A207031C01
:10011000A307031CC1280330A100DF3091208528EC
:10012000A101E83EA000A109FC30031C9A28A00709
:1001300003189728A0076400A10F97282018A0286B
:10014000A01CA4280000A4280800A501A4011030C8
:10015000A600210DA40DA50D2208A4022308031C4E
:10016000230FA5020318BB282208A407230803189D
:10017000230FA5070310A00DA10DA60BA928200889
:10018000C12883130313831264000800C0309F004A
:100190008316FF30850001308800643083128A01A5
:1001A000832083169F01013083128A016F20BB00D8
:1001B00002308A016F20BA00FD303B07B800FF30E3
:1001C0000318013EB9008330A0001A30A10038089E
:1001D000A2003908A3008A01A520B8002108B900AF
:1001E0000430B8020030031C013EB9023808A000F8
:1001F0003908A1000530A200A3018A01A520BB0097
:10020000FD303A07B800FF300318013EB9008330D3
:10021000A0001A30A1003808A2003908A3008A0102
:10022000A520B8002108B9000430B8020030031C32
:10023000013EB9023808A0003908A1000530A2002B
:10024000A3018A01A520BA00FE308A0121200130D5
:100250008A01212046308A01212072308A01212022
:100260006F308A0121206E308A01212074308A018A
:10027000212020308A0121203D308A012120203098
:100280008A0121203A088A010220FE308A012120B9
:10029000C0308A0121204C308A01212065308A013A
:1002A000212066308A01212074308A0121202030EB
:1002B0008A0121203D308A01212020308A0121201D
:1002C0003B088A01022064308A0183208A01D128F8
:02400E00F92F88
:00000001FF
