:10000000B2010429A501A400B3172730A3001030C2
:1000100015200330A300E8301520A301643015201B
:10002000A3010A30152024082028A2002508A100D9
:100030002408A000CD202008031DB313B31B080023
:10004000303EA70007118711091183160711871188
:1000500009110F30870583122708B2184C283A304F
:10006000A100FC3091203330A60060201030A100A8
:10007000683091206020643090202230A6006020FB
:1000800028304B200C304B2001304B2006304B20C9
:10009000B21427084C283214A600321C5A288711A3
:1000A000033C031C5F285F200730A100D030912063
:1000B000031408003214FE3C0319FF288715321C74
:1000C000321007150F3087052608F039870407110D
:1000D000A60E3218602832309020031408000F3921
:1000E000A0000310A00DA00D1F08C0392004013886
:1000F0009F000030A100323091209F149F187E286D
:10010000A1011E08FF28A301A200FF30A207031CC3
:10011000A307031CFF280330A100DF3091208528AE
:10012000A101E83EA000A109FC30031C9A28A00709
:1001300003189728A0076400A10F97282018A0286B
:10014000A01CA4280000A4280800A2000330B228A4
:10015000A101A301A2000130B228A101A301A200C4
:100160000430B228A80023082102031DB928220860
:100170002002043003180130031902302805031D42
:10018000FF30FF280038031DFF300405031DFF303A
:10019000FF280404031DFF30FF28A501A40110302F
:1001A000A600210DA40DA50D2208A4022308031CFE
:1001B000230FA5020318E3282208A4072308031825
:1001C000230FA5070310A00DA10DA60BD128200811
:1001D000FF281030A800A101A001A70CA60C031C49
:1001E000F7282208A00723080318230FA107A10C52
:1001F000A00CA50CA40CA80BED282408FF28831341
:100200000313831264000800C0309F008316FF3080
:1002100085008601013088008312C401CA01C9012A
:10022000C8011430CB008A110A125B2264004A080C
:10023000003C8A110A12031D33294208A00043081A
:10024000A100A30178308A01A5208A110A12031D9A
:1002500031298A110A125B228A110A1264238A0147
:100260001D290130CA0064008A110A120818562A92
:100270008A110A125B22C40AFE308A012120C03092
:100280008A0121204C308A01212069308A012120F5
:100290006E308A01212065308A01212064004408E3
:1002A000013C8A110A12031D4C2A4008A000410893
:1002B000A100A30146308A01AA20B8004D08A00081
:1002C0003C308A01AD20BA00380884003A088A011F
:1002D000C920BA00BB004C08A0002A308A01A8201F
:1002E000BC003A083B0484003C088A01C920BC00D9
:1002F000BD004C08A00022308A01AD20BE003C08A1
:100300003D0484003E088A01C920BE00BF0064008D
:100310003E083F048A110A120319A0298A110A1201
:100320005B226400B93045028A110A1203189B2926
:100330008A110A12BA248A110A1231238A01552914
:100340000230C400640010304C028A110A12031CEF
:10035000B1298A110A125B228A110A1213238A0117
:10036000A2294E08A0000A308A01A820B8004C0833
:10037000A00023308A01AD20BA00380884003A0872
:100380008A01C920BA00BB0064003A083B048A1104
:100390000A120319D3298A110A125B228A110A123E
:1003A00031238A01B12964001E304E028A110A12DB
:1003B0000318E2298A110A1213238A110A125B22F6
:1003C0008A01D329640029304C028A110A12031CC5
:1003D000F1298A110A125B228A110A124C238A011E
:1003E000E229640046304C028A110A120318012ADD
:1003F0008A110A125B228A110A124C23C80A8A0146
:10040000F1296400D23045028A110A1203180B2A1E
:100410008A110A12BA240330C400C9014808A60090
:10042000A7010430A200A3018A01E920B800250831
:10043000B9004908A000A1013908A30038088A01C1
:10044000AA208A110A12031D302A8A110A125B227D
:100450008A110A123123C90A8A110A12031D0E2AAF
:10046000640010304E028A110A12031C3F2A8A11BE
:100470000A125B228A110A1213238A01302A6400AD
:100480008A110A12081C4C2A8A110A125B228A114C
:100490000A12F9238A013F2A64004408033C8A11A6
:1004A0000A12031D562A8A110A120D268A110A12EF
:1004B000F9238A0113294E08CF004C08CD004508C6
:1004C000C70083169F01003083128A016F20C50088
:1004D00001308A016F20CE0002308A016F20CC00EB
:1004E000FD304E07B800FF300318013EB9008330DD
:1004F000A0001A30A1003808A2003908A3008A0120
:10050000CD20B8002108B9000430B8020030031C27
:10051000013EB9023808A0003908A1000530A20048
:10052000A3018A01CD20CE00FD304C07B800FF307A
:100530000318013EB9008330A0001A30A10038082A
:10054000A2003908A3008A01CD20B8002108B90013
:100550000430B8020030031C013EB9023808A00084
:100560003908A1000530A200A3018A01CD20CC00EA
:100570004F084E02B800B901031CB90364303807B4
:10058000C20039080318013EC3004D084C02B800F0
:10059000B901031CB90364303807C00039080318D7
:1005A000013EC10047084502B800B901031CB90368
:1005B00064303807C600FE308A01212001308A01EC
:1005C000212046308A0121204C088A010220FE3079
:1005D0008A01212014308A0121204C308A012120F7
:1005E0004E088A010220FE308A01212014308A013F
:1005F000212046308A01212045088A010220FE3050
:100600008A01212014308A01212052308A012120C0
:1006100044088A010220080086010130A300F4305A
:100620008A0184200800FE308A012120C0308A011E
:10063000212043308A01212068308A012120613045
:100640008A01212072308A01212067308A0121200D
:1006500065308A0121200530860001308A0183201F
:100660000800FE308A012120C0308A01212052304A
:100670008A01212069308A01212067308A012120E6
:1006800068308A01212074308A01212009308600D7
:1006900014308A0183200800FE308A012120C030F6
:1006A0008A0121204C308A01212065308A012120D5
:1006B00066308A01212074308A01212006308600AC
:1006C00014308A018320080064000A304E028A1127
:1006D0000A1203188A2BFE308A012120C0308A01B9
:1006E000212052308A01212069308A01212067307F
:1006F0008A01212068308A01212074308A0121205A
:100700000130860013308A018320053086000130D5
:100710008A01832064000D304E028A110A12031CE4
:10072000AD2BFE308A012120C0308A0121204C30BF
:100730008A01212065308A01212066308A0121202A
:1007400074308A0121200430860013308A0183200E
:100750000530860001308A0183204E080A3C031DC3
:10076000FF30FF3AB8004E080B3C031DFF30FF3A44
:10077000BA00380884003A088A01C920BA00BB00D0
:100780004E080C3C031DFF30FF3ABC003A083B0406
:1007900084003C088A01C920BC00BD0064003C08FC
:1007A0003D048A110A120319F82BFE308A01212018
:1007B000C0308A01212053308A01212074308A01FF
:1007C000212072308A01212061308A012120693084
:1007D0008A01212067308A01212068308A01212086
:1007E00074308A0121200530860014308A0183206C
:1007F000080064000D304C028A110A120318252CDF
:10080000640032304C028A110A120318252C8A0126
:100810005B22FE308A012120C0308A012120523023
:100820008A01212069308A01212067308A01212034
:1008300068308A01212074308A0121200930860025
:1008400014308A0183208A01002C4E080A3C031DC3
:10085000FF30FF3AB8004E080B3C031DFF30FF3A53
:10086000BA00380884003A088A01C920BA00BB00DF
:100870004E080C3C031DFF30FF3ABC003A083B0415
:1008800084003C088A01C920BC00BD0064003C080B
:100890003D048A110A120319702CFE308A012120AE
:1008A000C0308A01212053308A01212074308A010E
:1008B000212072308A01212061308A012120693093
:1008C0008A01212067308A01212068308A01212095
:1008D00074308A0121200530860014308A0183207B
:1008E00064000A304E028A110A120318962CFE3058
:1008F0008A012120C0308A01212052308A01212022
:1009000069308A01212067308A01212068308A01FC
:10091000212074308A0121200130860027308A018D
:1009200083200530860001308A01832064000D3069
:100930004E028A110A12031CB92CFE308A012120B2
:10094000C0308A0121204C308A01212065308A0183
:10095000212066308A01212074308A012120043050
:10096000860027308A0183200530860001308A0105
:10097000832008008A010C238A015B22FE308A0151
:100980002120C0308A01212046308A0121206C308C
:100990008A01212061308A0121206D308A012120C5
:1009A00065308A0121204C08A00014308A01A8205B
:1009B000B8004E08A0000C308A01A820BA00380800
:1009C00084003A088A01C220BA00BB0064003A08D9
:1009D0003B048A110A120319F32C8A015B228A0153
:1009E00013238A01D32C8A010C23640003304402B0
:1009F0008A110A120318DA2D4508A00014308A0162
:100A0000A820B8004C08A0000E308A01A820BA0027
:100A1000380884003A088A01C920BA00BB00640083
:100A20003A083B048A110A120319DA2D8A015B2263
:100A300064000F304C028A110A120318442D64001E
:100A400032304C028A110A120318442D8A015B22AB
:100A5000FE308A012120C0308A01212052308A01D3
:100A6000212069308A01212067308A0121206830E5
:100A70008A01212074308A012120F9308600143047
:100A80008A0183208A011F2D4E080A3C031DFF3076
:100A9000FF3AB8004E080B3C031DFF30FF3ABA0086
:100AA000380884003A088A01C920BA00BB004E0801
:100AB0000C3C031DFF30FF3ABC003A083B048400A5
:100AC0003C088A01C920BC00BD0064003C083D040C
:100AD0008A110A1203198F2DFE308A012120C0309D
:100AE0008A01212053308A01212074308A0121207B
:100AF00072308A01212061308A01212069308A0107
:100B0000212067308A01212068308A012120743039
:100B10008A012120F530860014308A018320640088
:100B20000A304E028A110A120318B52DFE308A01CE
:100B30002120C0308A01212052308A0121206930D1
:100B40008A01212067308A01212068308A01212012
:100B500074308A012120F130860005308A0183201B
:100B6000F530860014308A01832064000D304E0277
:100B70008A110A12031CD82DFE308A012120C030B0
:100B80008A0121204C308A01212065308A012120F0
:100B900066308A01212074308A012120F4308600D9
:100BA00005308A018320F530860014308A018320C5
:100BB0008A01FC2C64004408033C8A110A12031DBC
:100BC000092E64008A110A12081C092E8A015B2270
:100BD000FE308A012120C0308A0121204C308A0158
:100BE000212065308A01212066308A01212074305D
:100BF0008A0121206F308A012120F43086000530DF
:100C00008A018320F53086000C308A0183208A0116
:100C1000E12D8A110A120D26080064004408033CE5
:100C20008A110A12031D162E0530CB0064004508F8
:100C30004B028A110A120318232E8A015B228A01B1
:100C400031238A01162E640015304C028A110A12D3
:100C5000031C512E8A015B22FE308A012120C03004
:100C60008A01212053308A01212074308A012120F9
:100C700072308A01212061308A01212069308A0185
:100C8000212067308A01212068308A0121207430B8
:100C90008A0121200530860014308A0183208A01D0
:100CA000232E6400143045028A110A120318932E71
:100CB0004008A0004108A100A30164308A01AF20D0
:100CC000B8004508A00005308A01A820BA003808FD
:100CD00084003A088A01C920BA00BB0064003A08BF
:100CE0003B048A110A120319932E8A015B22FE30FB
:100CF0008A012120C0308A01212052308A0121201E
:100D000069308A01212067308A01212068308A01F8
:100D1000212074308A012120F930860014308A01A4
:100D200083208A01582EF03086000130A300F43071
:080D30008A0184208A010D26CE
:02400E00F92F88
:00000001FF
